:100000000C942F030C9465280C9467030C946703DD
:100010000C9467030C9467030C9467030C946703B8
:100020000C9467030C9467030C948A2D0C945E2E39
:100030000C94D1260C9467030C9467030C9467030B
:100040000C9467030C9467030C9467030C94670388
:100050000C9467030C9474270C9467030C94670347
:100060000C9467030C9467030C9467030C94670368
:100070000C9467030C9467030C9467030C94670358
:100080000C9467030C9467030C9467030C94670348
:100090000C9467030C9467030C9467030C94670338
:1000A0000C9467030C9467030C94670329001400F5
:1000B0001A000900130005002A00040015001600AC
:1000C00017000A00E1001D001B00060007001900D0
:1000D0002152E0002352E200E3002C000000000067
:1000E00000000000000000000D000F0018001C00C0
:1000F00033002A001000110008000C001200280034
:100100000E000B00360037003800E5002152225265
:100110002352AC00AE00AB00000000000000000065
:100120000000000001000000000000000452000078
:100130000100000000002B022B0000000100000065
:1001400000000000000000000100010001000100AB
:10015000010001000000000000000000000000009D
:1001600000004A0000004B0049000100500051000F
:1001700052004F002B00010000004D0000004E0017
:100180004C0001000100010001000100010001001C
:1001900000000000000000000000000001001F023D
:1001A00022022E0225022302010036022D002E001B
:1001B0003702200201003500350254001E023100D2
:1001C0000100010001000100010001000000000029
:1001D000000000000000000000002F0024022D029B
:1001E00030000100310226023400330227020100F0
:1001F00021022F0234022E00300201000100010012
:1002000001000100010001000000000000000000EA
:100210000000000001001E081F0820082108220815
:1002200001001E001F00200021002200010000002C
:10023000000056005700000001000100010001000D
:1002400001000100000000000000000000000000AC
:100250000000000000000000000001002300240056
:100260002500260027000100670055008500630077
:100270005400010001000100010001000100010023
:10028000000000000000000000000000015200001B
:1002900000000000000002780000000005780478EB
:1002A0000078000000000000067803780178000064
:1002B000000000000000000000000000000000003E
:1002C0000000000000000000207800000000000096
:1002D000000000002178237825782778297800000D
:1002E00022782478267828782A78000000000000F8
:1002F00000000000000000000000000000000000FE
:10030000000000001E0F0500047F3F1F64321464CC
:100310003214783C1E1E140A052223252628292A79
:100320002C2D2F3032333536383A3B3D3E40424358
:100330004547494A4C4E5051535557595A5C5E6097
:1003400062646668696B6D6F71737577797B7D7FA9
:1003500081838587898A8C8E90929496989A9C9EA8
:100360009FA1A3A5A7A8AAACAEAFB1B3B4B6B8B9C4
:10037000BBBCBEBFC1C2C3C5C6C7C9CACBCCCDCE2C
:10038000D0D1D2D2D3D4D5D6D7D7D8D9D9DADADB0F
:10039000DBDBDCDCDCDCDCDDDDDDDDDCDCDCDCDC9B
:1003A000DBDBDBDADAD9D9D8D7D7D6D5D4D3D2D2DA
:1003B000D1D0CECDCCCBCAC9C7C6C5C3C2C1BFBEC2
:1003C000BCBBB9B8B6B4B3B1AFAEACAAA8A7A5A32D
:1003D000A19F9E9C9A98969492908E8C8A898785EC
:1003E00083817F7D7B79777573716F6D6B696866CB
:1003F0006462605E5C5A5957555351504E4C4A499D
:1004000047454342403E3D3B3A3836353332302F44
:100410002D2C2A292826252322FFAA7F55400001BA
:1004200001010101010101010202020202020202B4
:100430000203030303030303030404040404040486
:10044000050505050506060606060707070707084A
:10045000080808090909090A0A0A0B0B0B0C0C0CFD
:100460000D0D0D0E0E0E0F0F0F1010111111121297
:1004700013131414151516161717181819191A1A14
:100480001B1B1C1D1D1E1E1F202021222223242475
:10049000252626272829292A2B2C2D2D2E2F3031B1
:1004A0003232333435363738393A3B3C3D3E3F40C3
:1004B0004142434445464748494A4C4D4E4F5051AE
:1004C0005354555658595A5B5D5E5F616264656668
:1004D00068696B6C6D6F7072737577787A7B7D7EEF
:1004E0008082838587888A8C8E8F91939596989A3F
:1004F0009C9EA0A2A3A5A7A9ABADAFB1B3B5B7BA57
:10050000BCBEC0C2C4C6C9CBCDCFD1D4D6D8DBDD2A
:10051000DFE2E4E7E9EBEEF0F3F5F8FAFDFF1E03A6
:100520004E007900710075006900730074002000AE
:100530005200650076002E002000330000000E03FC
:100540004B0065006500620069006F000000040355
:10055000090409023B00020100A0FA09040000019D
:100560000301010009211101000122440007058156
:100570000308000109040100010300000009211122
:10058000010001227B000705820320000112010007
:10059000020000000810CB563100030102000105E3
:1005A000010902A10185020901A10005091901291A
:1005B000081500250195087501810205010930091A
:1005C000311581257F950275088106093815812529
:1005D0007F950175088106050C0A38021581257F73
:1005E000950175088106C0C005010980A101850338
:1005F00019012AB700150126B70095017510810071
:10060000C0050C0901A101850419012AA0021501E8
:1006100026A002950175108100C005010906A101FF
:10062000050719E029E715002501950875018102E4
:100630009501750881010507190029FF150026FF9E
:100640000095067508810005081901290515002582
:1006500001950575019102950175039101C0112461
:100660001FBECFEFDAE0DEBFCDBF04B603FE18C079
:100670008091960390919703A0919803B09199036C
:100680008730904BA740B04B59F4109296031092CC
:1006900097031092980310929903E0E0F8E309950C
:1006A00011E0A0E0B1E0E6EFF4E602C005900D92A3
:1006B000AE3FB107D9F723E0AEEFB1E001C01D9224
:1006C000A639B207E1F70E9478160C9425320C94F3
:1006D00000000E943C2285E00E94AF220E94D61FAB
:1006E0004FEF6FEF80E00E942D1C8BE00E94D21F25
:1006F00060E070E0CB010E94220E0E94300E08954F
:100700008530B8F46A30A8F4463098F450E096E0AA
:10071000699F400D511D1124FA019CE3899FE00D52
:10072000F11D1124EE0FFF1FE455FF4F85919491A9
:10073000089581E090E008950E948003089581E08B
:1007400008950E949F03089581E008950E949F03E9
:1007500008950E94A603089508950E94AC03089589
:10076000A6E0B0E0E6EBF3E00C94D13049835A8385
:100770009E833091050289819A8131111AC03E8190
:10078000332399F0222389F00E94BD09182F682F86
:1007900089819A810E94990969817A81812F0E94B9
:1007A000A0102696E3E00C94ED300E94AB09182FC0
:1007B000F3CF0E94BD0969817A81F1CFFC01262F18
:1007C0004081518162817381848195810E94B0034F
:1007D0000895CF93DF93EC0161E00E94DE03BE0138
:1007E0000E94A103DF91CF910895CF93DF93EC0195
:1007F00060E00E94DE03BE010E94AD03DF91CF9155
:10080000089508950E946E080E9401042FEF84E36A
:100810009CE0215080409040E1F700C00000089526
:100820000E9402040E94982708950E9402040E94D8
:10083000BC2708950F931F93CF93DF938C0161E042
:100840000E94DE03EC01B8010E94A903811106C0D9
:1008500080E0DF91CF911F910F910895B801CE01F3
:100860000E94B6228823A1F3B801CE010E94472539
:10087000882371F3B801CE010E94DD23882341F360
:10088000B801CE010E94B924882311F3B801CE012A
:100890000E9452218823E1F2F8018581882361F0CA
:1008A000C330FCE7DF07E9F058F4C115ECE7DE07D9
:1008B000A9F0C130DC47B9F0C8010E94A403C9CF38
:1008C000CB358CE7D807A9F0CC35ECE7DE0771F023
:1008D000CA35DC4789F70E94F30DEECF0E94100461
:1008E000B7CF0E94FB0D0E941504B2CF0E94E90D04
:1008F000E3CF0E94F70DE0CF0E94AE2680E00E9479
:1009000095220E94A80408950E94E2210E94AC044E
:100910000E94B3260895089581E008950895CF9325
:10092000DF93D82F0E948C04C82F882319F08D2FB5
:100930000E948E048C2FDF91CF9108950895CF935C
:10094000C82F0E948B048C2F0E948F04CF91089592
:1009500080E00E949F0408950E9490250E949F04B9
:100960000895CF930E949025C82F809100028C1784
:1009700079F0C09300020E943D27609301027093BA
:10098000020280930302909304028C2F0E949F0422
:10099000CF910895ADE0B0E0E0EDF4E00C94D230FA
:1009A000488759876A877B878C879D8791110E942A
:1009B000210D1F8286E0FE013896DE01119601901E
:1009C0000D928A95E1F78D8181110DC029813A81BF
:1009D0004B815C816D817E818F810E94540C2D96AC
:1009E000E2E00C94EE30CE0101960E94E903811101
:1009F000EDCFF5CFFC012481213021F4808191815C
:100A00000E94EF090895662329F00E940F170E94A3
:100A1000E21708950E946917FACFCF93C82F882351
:100A2000C9F08238C9F40E94A42581FD13C089E36E
:100A30000E94D90C0E945A0D2FEF87EE93E02150AF
:100A400080409040E1F700C0000089E30E94E10C83
:100A50000E945A0DCF9108958338A1F40E94A425D5
:100A600080FDF8CF83E50E94D90C0E945A0D2FEF2C
:100A700081EE94E0215080409040E1F700C00000FA
:100A800083E5E4CF8438A1F40E94A42582FDE2CF5F
:100A900087E40E94D90C0E945A0D2FEF81EE94E05A
:100AA000215080409040E1F700C0000087E4CECFA5
:100AB0008CEF8C0F813A90F46C2F8091040190910F
:100AC00005010E941C26882329F08C2F0E94E10C2E
:100AD0000E945A0D8C2F0E94D90CBACF80E28C0F45
:100AE000883048F4C77081E001C0880FCA95EAF7E2
:100AF0000E94040DADCFEBE5EC0FE33040F4F0E0E5
:100B0000E757FE4F808190E00E94C025A3CFE8E523
:100B1000EC0FEB3150F4F0E0EE0FFF1FED5AFE4FFB
:100B2000808191810E94E52595CF83E38C0F8331ED
:100B300008F090CF61E08C2F0E9403058BCF8823B3
:100B400009F456C0823879F40E94A42581FF50C070
:100B500089E30E94D90C0E945A0D89E30E94E10C9E
:100B60000E945A0D0895833859F40E94A42580FFED
:100B70003FC083E50E94D90C0E945A0D83E5EECF59
:100B8000843859F40E94A42582FF32C087E40E9471
:100B9000D90C0E945A0D87E4E1CF9CEF980F913A4F
:100BA000E8F290E2980F983050F4877091E001C01D
:100BB000990F8A95EAF7892F0E940A0DD1CF9BE5FC
:100BC000980F933028F490E080E00E94C0250895AB
:100BD00098E5980F9B3128F490E080E00E94E5258D
:100BE000089593E3980F933118F460E00E94030591
:100BF00008951F93CF93DF93182FEB010E940D05EB
:100C0000209739F4812F0E949F05DF91CF911F918A
:100C100008958FE99FE00197F1F700C00000219748
:100C2000EFCF70E060E0893311F460E570E00E947E
:100C3000F9050895882321F00E94040D0E945A0DA1
:100C40000895882321F00E940A0D0E945A0D0895EC
:100C5000B0E0A0E0EEE2F6E00C94CB306C01D62FD1
:100C6000C72FFC011581068102950F700E94FA0CB6
:100C7000E82E8823E9F0E12E1123D1F08C2F807F1C
:100C8000803451F080E28D0F8830F8F0011104C0FB
:100C90008C2F807E8032C9F08091410382FF15C085
:100CA00082E00E94BD0D0E94FA0C91E0E82EE92638
:100CB000BC2EB2949FE0B922FBE0FB15B8F1EB2DFE
:100CC000F0E0E95DFD4C0C948B30E12CF1CF0C2F62
:100CD0000F70C07F11F00295007F112399F000235F
:100CE00059F080E28D0F883010F0D11107C0802FAD
:100CF0000E94040D0E945A0D8D2F5AC0802F0E9411
:100D0000140DF8CF8D2F0E949F05002379F080E20B
:100D10008D0F883010F0D11104C0802F0E940A0D71
:100D200003C0802F0E941A0D0E945A0DEB2DE8502F
:100D3000FF0B349720F40E9490250E949F04EE2020
:100D400089F00E94F60C80FD0DC0F60115820E940C
:100D5000F00C0E94F708C6010E9435080E94F00CB2
:100D60000E940709CDB7DEB7E9E00C94E7302C2FDD
:100D70002F70F22EC07FC03219F0F29480EFF8226B
:100D8000DD2341F0D130D1F1112309F444C0002317
:100D9000F1F0B2CF8091410382FD15C0112359F0CB
:100DA000FF2029F08F2D0E94040D0E945A0D80E033
:100DB0000E940D05BBCF80E00E949F05FF2009F433
:100DC000B5CF8F2DABCF112369F0011104C08F2D4A
:100DD0000E941A06ABCF013009F0A8CF8F2D0E94D8
:100DE000380DA4CF0111A2CF8F2D0E9421068F2D87
:100DF0000E94440D8F2D0E94280D98CF112321F0C1
:100E0000063008F093CFE3CF053008F08FCF8F2D59
:100E10000E9421068BCF0023D1F3D93349F43FEF51
:100E200087EE93E0315080409040E1F700C0000031
:100E30008D2F0E949F057ACF8C2F86958695837083
:100E400069F0813009F072CF8D2F9C2F93701111B2
:100E500002C080E090E00E94E52568CF8D2F9C2F96
:100E60009370111102C080E090E00E94C0255ECF17
:100E7000612F8D2F0E94030559CF8C2F8370A1F510
:100E8000111154CF4D2F429546954770440F440F92
:100E90002D2F2F7030E0042E02C0220F331F0A9432
:100EA000E2F790E080E0D4FF09C08FE090E002C05C
:100EB000880F991F4A95E2F780959095C695C6953B
:100EC000C370822B932BC23049F058F4C13019F013
:100ED0000E94C7082BCF0E94BE0828CF0E94D008CE
:100EE00025CF0E94BB0822CF8695112311F08C2FAD
:100EF0008170882309F41ACF4D2F4295469547708B
:100F0000440F440F2D2F2F7030E0042E02C0220F0B
:100F1000331F0A94E2F790E080E0D4FF09C08FE02D
:100F200090E002C0880F991F4A95E2F7809590954E
:100F3000C695C695C370822B932BC23049F058F4E6
:100F4000C13019F00E943209F1CE0E942909EECE7B
:100F50000E943B09EBCE0E94DF08E8CECF70112340
:100F600029F08C2F0E94F7088D2F32CF8D2F0E94F1
:100F700021068C2F0E940709D9CED23F41F160F49F
:100F8000D03FB9F0D13F81F0112309F446C00111DF
:100F9000B3CE8C2F8F711FC0D33F01F1D43FA1F787
:100FA0008091410382FD24C08C2F8F71112311F396
:100FB00012C0112341F0053008F0B8CE8C2F8F718C
:100FC0000E941909B3CE063008F0B0CEF7CF8C2FAF
:100FD0008F711111CFCF0E94F708A8CE112329F0ED
:100FE0008C2F8F710E94EB08A1CE0E94E6089ECE46
:100FF000112349F0CF718C2F0E94F70863E08C2FEA
:101000000E949F0D93CE81E00E94BD0D023008F436
:101010008DCE82E00E94BD0D89CE002359F0D933D8
:1010200009F006CFEFEFF7EE23E0E150F04020406B
:10103000E1F7FCCE8C2F8F719DCF0F931F93CF9331
:10104000DF93EC01688179818D810E94FA098C011E
:101050000E9444090E94BA08B801CE010E942806E5
:10106000DF91CF911F910F910895CF93DF93EC0102
:101070008C81882399F0CE010E941A04811111C03D
:101080000E94FA0C882351F08D81882339F08091D9
:10109000410382FF03C082E00E94BD0DDF91CF912A
:1010A0000895CE010E941D08CE010E94F503F6CFDF
:1010B00090E080E00E94C02590E080E00E94E5255D
:1010C0000E94210D0E945A0D0E94FE170E94E217F5
:1010D00008950E94E90C0E94580808950E94110D7D
:1010E0000E946908089592959F70963091F058F487
:1010F000925F9F70923058F4803F19F030F4883E30
:1011000030F481E008959A5FF4CF843FD1F380E01A
:101110000895883EB0F3813FD1F7F3CFFC012481DD
:10112000222339F0808191810E94EF090E94730887
:10113000089580E00895A6E0B0E0E1EAF8E00C94BC
:10114000D2302696E2E00C94EE30A7E0B0E0EBEA75
:10115000F8E00C94D2302796E2E00C94EE3008953B
:101160000E94AF0808950E94B008909329028093CE
:101170002802089508950E94B30808952091280236
:1011800030912902822B932B0E94B308089520915D
:10119000280230912902822393230E94B3080895E4
:1011A0002091280230912902822793270E94B308B8
:1011B00008950E94AF0808950E94D90808950E94DA
:1011C000DC089093270280932602089590E080E047
:1011D0000E94DF08089521E030E0A90102C0440F19
:1011E000551F8A95E2F7CA010E94DF08089521E0A1
:1011F00030E002C0220F331F8A95E2F78091260269
:1012000090912702822B932B0E94DF08089521E002
:1012100030E002C0220F331F8A95E2F72095309507
:101220008091260290912702822393230E94DF0857
:10123000089521E030E002C0220F331F8A95E2F7C3
:101240008091260290912702822793270E94DF082F
:1012500008952091260230912702822B932B0E9421
:10126000DF080895209126023091270282239323DC
:101270000E94DF08089520912602309127028227DC
:1012800093270E94DF0808950895262F277091E084
:1012900001C0990F2A95EAF723E0769567952A957C
:1012A000E1F7660F771F660F771FFA01E60FF71F4A
:1012B00050E040E0682F70E08191DF0111979B01C1
:1012C000042E02C0369527950A94E2F721702195E5
:1012D0002827292328272C934F5F5F4F443051053F
:1012E00059F70895A82FA77023E0969587952A951A
:1012F000E1F7880F991F880F991FFB01E80FF91F6D
:1013000050E040E080E0219130E00A2E02C03695A6
:1013100027950A94E2F721703327042E01C0220F8B
:101320000A94EAF7822B4F5F5F4F4430510559F71B
:101330000895262F9A3070F4863060F4682F70E09C
:1013400086E0989F600D711D112446E052E0822FC7
:101350000E9445090895292F9A3068F4863058F480
:1013600090E066E072E036E0239F800D911D11242D
:101370000E947209089580E00895B0E0A0E0E3ECD7
:10138000F9E00C94CB307C010091260210912702E9
:101390008091280290912902082B192BCFE0D0E0F0
:1013A000CC24C394D12CBC2EC6010C2E02C0880FB5
:1013B000991F0A94E2F780239123892B49F42197FE
:1013C00090F7B12C8B2DCDB7DEB7E9E00C94E73068
:1013D000B7018C2F0E94AC10019789F3F3CFCF9304
:1013E000DF93EC010E94BD09BE010E94AC10DF91A9
:1013F000CF9108951F93CF93DF93EB019091050256
:10140000992339F0CB010E94EF09DF91CF911F9111
:101410000895882369F0CB010E94BD09182F682F19
:10142000CE010E949909BE01812F0E94AC10EDCF20
:10143000CB010E94AB09182FF6CF1F93CF93DF93F8
:10144000C0912A0217E080912B028C1304C0DF9117
:10145000CF911F910895D0E01C9FF0011D9FF00DCA
:101460001124E45DFD4F20813181428153816481EB
:10147000758186810E94A5082196C770E4CF2091CE
:10148000640230916502409166025091670260915A
:1014900068027091690280916A020E94A50808950D
:1014A000CF93DF9380916A02807F09F04DC08091D5
:1014B0006902882309F448C0E0912A0250912B0266
:1014C000C0916502D09164026091660270916702DA
:1014D00047E05E17C9F18E2F90E0E49FF0011124E0
:1014E000E45DFD4F2481222391F1489FF001499F43
:1014F000F00D1124DF01A45DBD4F11962C911197C1
:101500002C1325C02C912D1322C015962C911597C4
:1015100021111DC012962D913C91261B370B283CA2
:101520003105A8F480916A028F70806180936A020D
:10153000EE5CFD4F80818F708061808384E692E055
:101540000E9435080E941D0ADF91CF910895FC0189
:101550003196E770BECF482F20912A0290912B023E
:1015600057E0291302C080E0089530E0529FF00157
:10157000539FF00D1124E45DFD4F8181681306C077
:101580008081481303C085818111EECF2F5F3F4FCB
:101590002770E7CFA4E1B0E0E0EDFAE00C94C830AA
:1015A0008C0186E0F801DE011F9601900D928A956C
:1015B000E1F7F8018481E58094E6A92E92E0B92E46
:1015C0009091680291111FC08823D1F0EE20A9F0FC
:1015D000C8010E948E08F82E882379F087E0F80170
:1015E000D50101900D928A95E1F7C5010E94FA0498
:1015F0000E94500A0E943F0A5FC0C8010E9435083D
:10160000FF24F39459C0C080D18082809380F090F1
:1016100069022091660230916702A401421B530BBC
:10162000FF2009F4F9C0483C510508F0A7C0882301
:1016300009F442C09091650280916A02282F207FB0
:1016400009F05CC09D1116C090916402C91212C0CD
:10165000E1104EC08F70806180936A020E943F0A41
:1016600084E692E00E94350880916A02F801868340
:10167000F12C22C0E1103CC06D2D8C2D0E94AB0AD4
:101680006D2D8C2D0E94AB0AE82E8111F1CFCF86F3
:10169000D88A8F8598890E94EF09292F22952F706B
:1016A000243078F49F702230A8F09923B9F0F80123
:1016B0009681907F99F4FE2C8F2D6496ECE00C942B
:1016C000E4302A5F2F70223068F0C8010E9435088C
:1016D000EF2CF1CF992311F0882369F3805E8830D5
:1016E00050F3F3CF803F38F3815F833070F7E3CF5F
:1016F00080916A02816080936A02BACF9D1113C003
:1017000090916402C9120FC0E1100DC08683C80118
:101710000E94350887E0F801A4E6B2E001900D923E
:101720008A95E1F767CFC8010E948E08882309F4E3
:1017300064CFEE2009F461CF80916A02803288F094
:101740002091640230916502398728879B868A86BA
:10175000909168029C871D868E87CE0108960E9414
:10176000350887E0F801A4E6B2E001900D928A9571
:10177000E1F70E94500A0E943F0A42CF90916A020C
:10178000292F207FA1F4682D9A8A898AA6017A8957
:101790009E2D0E949B0884E692E00E94350887E017
:1017A000F50111928A95E9F70E943F0A61CF8823DB
:1017B00009F482CF809165028D1110C0809164027E
:1017C000C8120CC0E1100AC09683C8010E943508F7
:1017D00087E0F50111928A95E9F76ECFC8010E9462
:1017E0008E08882309F409CFEE2009F406CF8091F2
:1017F0006A02803208F4B5CF20916402309165020C
:101800003A8329839C828B82909168029D831E82F9
:101810008F83CE010196A3CF483C5105B8F58823AC
:1018200009F4EECEFE2CEE2009F4E7CE809165029D
:101830008D111EC080916402C8121AC080916A0284
:1018400080FD0DC0982F907F51F08683903F09F462
:101850005ECF982F907F905F8F70892B57CF87E056
:10186000F801A4E6B2E001900D928A95E1F724CF49
:10187000C8010E948E08811174CF80916A02816034
:1018800080936A02C8010E94350816CF682D9A8A93
:10189000898AA6017A899E2D0E949B0887E0F5011E
:1018A00011928A95E9F7A6CEAEE0B0E0EAE5FCE059
:1018B0000C94D130288739874A875B876C877D876E
:1018C0008E87CE0108960E94CA0A8823B1F06C85E3
:1018D000662341F0288539854A855B857D858E851F
:1018E0000E94A50817E080912A0290912B0289138B
:1018F0003DC02E96E3E00C94ED3087E0FE01389673
:10190000DE01119601900D928A95E1F78C8588236E
:1019100049F320912B0230E0C90101968770992785
:1019200040912A024817190699F097E0929FD0013A
:10193000939FB00D1124A45DBD4FFE01319601901F
:101940000D929A95E1F780932B020E941D0ACACF4F
:101950000E946E0810922B0210922A0287E0E4E6A1
:10196000F2E0DF011D928A95E9F7BCCF819FC001AB
:101970001124845D9D4F0E94CA0A882309F4B9CFBF
:10198000E0912A021E9FF0011124E45DFD4F2081A9
:101990003181428153816481758186810E94A508CD
:1019A00080912A0290E001968770992780932A02FD
:1019B0009ACF682F80910401909105010E945226D0
:1019C0000895682F80910401909105010E94552689
:1019D000089580910401909105010E945826089570
:1019E00080917302869586958695089580917302FD
:1019F0008770089590917302977081E009F480E0F8
:101A0000089580917F02089590917F02892B8093A1
:101A10007F020895809590917F02982390937F0292
:101A2000089510927F02089590917E02892B8093F1
:101A30007E020895809590917E02982390937E0275
:101A4000089510927E02089508950E94240D08952D
:101A500090917402292F282331F080958923809357
:101A600074020E94250D089508950E94340D089572
:101A700090917502292F2823281729F0982B9093ED
:101A800075020E94350D089590917502292F282323
:101A900031F080958923809375020E94350D089559
:101AA00080917502882329F01092750280E00E94CF
:101AB000350D0895CF93DF93E0910401F091050176
:101AC00080917F028083E0910401F0910501808183
:101AD00090917E02892B808390917502992381F0E9
:101AE000E0910401F09105018081892B8083809130
:101AF0000401909105010E940A2681110E94500D57
:101B0000C0910401D091050148E050E06BE672E01D
:101B1000CE010E949831892B59F088E0FE01ABE696
:101B2000B2E001900D928A95E1F7CE010E94A725BF
:101B3000DF91CF91089508950E949B0D0895909193
:101B4000410392FF11C098E0899F90011124622BFC
:101B5000609373020E94F7088091730286958695C0
:101B600086950E949C0D08950E94F7080895109292
:101B7000730280E00E949C0D0895909173028095FD
:101B8000892380937302282F277069F4891759F0ED
:101B90009091410392FF07C08695869586950E9495
:101BA00007090E94B70D08959091410392FB2227E7
:101BB00020F9281769F080FB92F9909341038091F6
:101BC0004003909141030E941C0E82E00E94BD0DD3
:101BD00008958091410382FB882780F991E089274D
:101BE0000E94D40D089581E00E94D40D089580E0F4
:101BF0000E94D40D08956FEF7FEF90E080E00E9487
:101C0000F031089590E080E00E94BC3121E0863EF2
:101C10009E4F09F020E0822F089582E090E00E941C
:101C2000AE31089583E090E00E94AE31089584E0E3
:101C300090E00E94BC310895BC0184E090E00E94D5
:101C4000F0310895AB01BC018FE090E00E94E431D7
:101C50000895AB01BC0183E190E00E94E431089556
:101C600060E070E0CB010E94290E0895A8E0B0E08A
:101C7000ECE3FEE00C94D23066EE7EEF90E080E084
:101C80000E94F03160E082E090E00E94D23160E09A
:101C900083E090E00E94D231109229021092280233
:101CA00060E074E184E090E00E94F03160E086E062
:101CB00090E00E94D2316FEF87E090E00E94D23135
:101CC00040E050E0BA0188E090E00E94E43160E03A
:101CD00084E290E00E94D23160E087E190E00E94CF
:101CE000D23160E08CE090E00E94D23160E08DE083
:101CF00090E00E94D23119821A821B821C821D82BE
:101D00001E821F82188648E050E068E170E0CE0134
:101D100001960E94C23140E050E0BA0180E290E0BA
:101D20000E94E4310E9469032896E2E00C94EE30B0
:101D30000E94360E0895682F8EE090E00E94D23106
:101D40000895A6E0B0E0E7EAFEE00C94D0300E94EF
:101D500031278C0180918002909181028017910738
:101D600081F019821A820E943127682F49815A8195
:101D7000792F80E090E00E94CA04109381020093C2
:101D800080022696E4E00C94EC300E94C811609327
:101D900090027093910280939202909393026093C9
:101DA0008C0270938D0280938E0290938F0208951F
:101DB000089508950E94D80E089508950E94DD0E9A
:101DC000089581E008958DEE91E10E9485160E94AC
:101DD000D90E0E94DA0E08950E94BE130895089548
:101DE00008950E94EF0E0E94F00E08950E94F011D7
:101DF0000E949E040E94882308950E9428270E9422
:101E0000A2110E94D6130E941A130E94F60E0E947D
:101E1000C5230E94E2210E94ED1F0E94F2130E943E
:101E2000DE0E0895A6E0B0E0E8E1FFE00C94C930D2
:101E30000E94E10E811110C00E94A10E0E94BE13EB
:101E40000E946A200E9487230E9420180E94B104E9
:101E50002696EBE00C94E5300E943D1382E8A82E14
:101E600082E0B82E750110E0F70101917F01812F0A
:101E70000E9416121F5F1A3009F441C00817A1F31F
:101E80008091940281FD0E941C120E94EC0EC82ECB
:101E900010E099249394812F0E941612082FF501C7
:101EA00081915F01081729F1F12CEE24E394D02EE3
:101EB000D8268D2D8E21A9F0CC2099F0F9821A8395
:101EC0000E9431279C838B839D8291E0802F8E21FD
:101ED00009F490E049815A816B817C818D810E9457
:101EE000CA04F394EE0CF6E0FF12E3CFF50131974C
:101EF00000831F5F1A3079F60E94C50E9FCF08132A
:101F0000BFCF9ACF1F93CF93DF930E94B110EC0104
:101F1000C11580E5D807F0F5C11580E4D80708F0B1
:101F20009CC0C03ED10520F5CD3CD10508F082C053
:101F3000C83AD10578F4C53AD10508F073C0C1306C
:101F4000D10519F1209709F1C430D105F0F4D0E0A2
:101F5000C0E01BC0C33CD105D0F7C85AD0E0CC0FBD
:101F6000DD1FC457DE4F0990D881C02DD4640DC049
:101F7000C11580E2D80708F0D1C0C11581E0D807AB
:101F800008F05AC0C83ED10510F7CE01DF91CF91BD
:101F90001F910895C03682E5D80718F5C03482E550
:101FA000D80708F06BC0C03282E5D80708F05FC0E0
:101FB000C11582E5D80708F497C02C2F26952695E1
:101FC00080E2289F900111248C2F8370C1E0D0E023
:101FD00002C0CC0FDD1F8A95E2F7C22BD32BDD6840
:101FE000D4CFC03A82E5D80760F4C03882E5D8077C
:101FF00008F459C0CF71D0E0DC2FCC27C46FD06A71
:10200000C4CFC03C82E5D80708F462C0C03E82E578
:10201000D80708F09CCFDC2FCC27CC27DF71C06F0E
:10202000D06AB3CFC55AD0E0CE53DE4FC881D0E0DE
:10203000D064ABCFD065A9CF8D2F0E945311182F3C
:10204000CE0199270E94B110C12FD0E0DC2FCC2700
:10205000CC27DF71C82BD92B98CFCE0199270E94AE
:10206000B110CC27DF70C82BD92BD06A8ECFCF719F
:10207000D0E0DC2FCC27C16FD06A87CF2C2F2695DC
:102080002695277080E2289F900111248C2F837061
:10209000C1E0D0E002C0CC0FDD1F8A95E2F7C22B71
:1020A000D32BDC6872CF2C2F26952695277080E2E3
:1020B000289F900111248C2F8370C1E0D0E002C0D2
:1020C000CC0FDD1F8A95E2F7C22BD32BDA685DCFE8
:1020D0008C2F8F710E945311C82FD0E0DC2FCC279A
:1020E000CC27DF71D06251CF8C2F8F710E9453119A
:1020F00055E0D695C7955A95E1F7CF70D0E0DC2F23
:10210000CC27282F30E084FF05C044E0220F331F86
:102110004A95E1F7C22BD32BD06937CF8D2F8F7122
:102120000E945311182FCE0199270E94B110C12F80
:10213000D0E0DC2FCC27CC27DF71C82BD92BD2CF16
:10214000462F7A3030F4663020F4672F0E949C03CB
:10215000089590E080E008950E94A0100E94820FF0
:10216000089582389105B9F1B0F48133910509F4ED
:102170007DC048F48932910509F46DC08A32910519
:1021800009F47BC008958533910509F45FC0893354
:10219000910509F10895833E9105D9F138F4803E07
:1021A000910529F1823E910579F10895863E9105C8
:1021B000D9F1873E910509F43EC0843E910541F571
:1021C0002091410321FF24C08091400384FD19C068
:1021D00087EE90E0089520914003237009F05AC0E3
:1021E0002091410323FF14C089E290E008952091DB
:1021F000400320FD38C03091410330FF09C024FF67
:1022000043C090E080E008952091400322FDF7CF85
:1022100008952091400322FD3AC03091410330FDE2
:1022200039C024FFF5CFEDCF2091400323FFF0CF3D
:1022300024FDE7CFCDCF2091400323FD2EC0309168
:10224000410331FFEECF84EE90E0089520914003EA
:1022500025FFDECFC9CF2091400325FD21C020916D
:10226000410323FFD5CF89E390E0D2CF20914003F3
:1022700026FFCECF8AE290E008952091400326FF0A
:10228000C7CF81E390E0089583EE90E0089582EE59
:1022900090E0089580EE90E0089586EE90E0089535
:1022A00085E390E008959091400392FF10C041E0D3
:1022B000282F2471243009F040E031E0282F2871C4
:1022C000283009F030E0431711F02CE0822793FF0B
:1022D00010C041E0282F2471243109F040E031E0A2
:1022E000282F2871283109F030E0431711F02CE035
:1022F00082273091410330FF10C051E0282F217117
:10230000213009F050E041E0282F2871283009F0F1
:1023100040E0541711F029E0822731FF10C041E05E
:10232000282F2171213109F040E031E0282F287158
:10233000283109F030E0431711F029E0822794FD9D
:10234000877E089510923C0310923D0310923E0345
:1023500010923F030895CF92DF92EF92FF926B01AC
:102360007C010E94BE1381110EC00E943D27C61A37
:10237000D70AE80AF90AC0923C03D0923D03E092E2
:102380003E03F0923F03FF90EF90DF90CF900895CF
:102390000F931F930E94BE13882329F00E943D27AC
:1023A0001F910F9108950E943D2700913C031091C9
:1023B0003D0320913E0330913F03600F711F821F48
:1023C000931FEECF0E94BE13882319F00E9431277D
:1023D00008950E94C811CB01089580E008950895E2
:1023E0000E94020E811102C00E94980E0E940D0EE2
:1023F000809394020E94170E9093410380934003B0
:102400000E94EF110E94120E90E00E94BB08809182
:102410002602909127020E94DC08089508950E94E8
:102420000E12089508950E9412120895E82FF0E008
:10243000E35BFC4F80810895089580EA8A95F1F767
:10244000089500C008950E941D12089508950E94E5
:1024500026120895A5E0B0E0E0E3F2E10C94CE305E
:102460000E94BE13F82E60915703882309F440C0E0
:1024700085E0E82E8E010F5F1F4FF8018E2D11921F
:102480008A95E9F7862F90E0B801835B9C4F0E9404
:1024900000148823B9F08091420390E045E050E0B9
:1024A000B801835B9C4F0E94983121E020939502F4
:1024B000892B91F4F12C0E9413128F2D2596E6E0C2
:1024C0000C94EA30809195028823A1F3F8011192CF
:1024D000EA94E9F710929502A0914203B0E0A35B61
:1024E000BC4F85E0F80101900D928A95E1F7E3CFAA
:1024F00070E0635B7C4F8091420390E0835B9C4F74
:102500000E9487140E942712D8CFF894E82FE295F2
:10251000EF70F0E031A1282F2F7081E090E001C032
:10252000880F2A95EAF7982F9095932391A392A16B
:10253000892B82A3789408950F931F93CF93DF93F1
:10254000CBECD1E089918F3F11F00E94851281E0A0
:10255000C03DD807B9F7C5ECD1E00BEC11E089918B
:102560008F3F11F00E9485120C171D07C1F7DF91F4
:10257000CF911F910F910895B0E0A0E0E2ECF2E15D
:102580000C94CC30EC01D62E062F10E0C8018553F8
:102590009E4F7C01FC0180818F3F09F444C0F89478
:1025A000E82FE295EF70F0E091A18F7021E030E02C
:1025B00001C0220F8A95EAF7892F822B81A382A17D
:1025C0002095282322A378940E942112E5ECF1E0C3
:1025D00031E0C12C21912F3F59F1A22FA295AF706C
:1025E000B0E090968C9190E02F7002C09595879501
:1025F0002A95E2F780FD1CC0832FC82A330F81E0A3
:10260000EB3CF80739F7F70180818F3F11F00E940A
:10261000851261E0C11001C060E08D2D0E9423127F
:10262000C00FD11FC882CDB7DEB7E8E00C94E83008
:1026300080E0E3CF809106018091060195E0811151
:1026400090E09093570385E0891B809342030E949A
:102650009C128AE0EDE4F3E0DF01982F1D929A9539
:10266000E9F7E3E4F3E0DF011D928A95E9F785E0FD
:102670000E947B130E940F120895AAE0B0E0E3E4E9
:10268000F3E10C94CF308E010F5F1F4F8AE0F80109
:1026900011928A95E9F7F12C6F2DC8010E94BC12A6
:1026A000F394F5E0FF12F8CF4AE050E0B80183E47C
:1026B00093E00E94983121E0009709F420E0892BF3
:1026C00041F08AE0F801A3E4B3E001900D928A950D
:1026D000E1F76091570370E0635B7C4F45E083E472
:1026E00093E00E947C13182F0E942A12812B2A96B5
:1026F000E5E00C94EB300895CF92DF92EF92FF92D9
:102700000F931F93CF936C017B01042F222349F079
:1027100081E0809398020E943127909397028093E2
:102720009602C0919802C1110AC0C0E08C2FCF91CF
:102730001F910F91FF90EF90DF90CF9008958091BF
:102740009602909197020E944927059770F310E036
:10275000A801B601C7010E949831892B41F0A80158
:10276000B601C7010E94A53110929802DFCFC0E0E8
:10277000FBCF89B185FB882780F9089580919B0262
:10278000811107C00E940A30882351F081E08093B4
:102790009B0281E090919B02913009F080E00895C6
:1027A00082E080939B020E940530F3CF55985D989C
:1027B0008FE891E00197F1F700C000000E94B91383
:1027C000809306018091060166E0882349F080E04D
:1027D0000E94A6190E94BE1381110E94361408950A
:1027E00086E0F6CF0E94BE13811102C00E94391408
:1027F000089581E090919C029A3008F080E008955D
:102800000F931F93CF93DF93EC018B0180919C0278
:102810008A30B8F4B801CE010E948414C82F811107
:1028200022C080919C028F3FB9F40E94312790937F
:102830009A02809399028C2FDF91CF911F910F9173
:1028400008958091990290919A020E944927843FAD
:10285000914000F7C0E0EFCF8F5F80939C028A30F9
:1028600020F7C1E0E8CF10929C02E5CF0E941F281C
:1028700008950E9422280895B0E0A0E0E2E4F4E187
:102880000C94CD307901C82F880FDD0B411551050F
:10289000A9F0FE0193E0EE0FFF1F9A95E1F7E95FC3
:1028A000FE4F8181928183569D4F208130E04217F7
:1028B000530708F49A01A9010E94A531CE010E9494
:1028C0000B29D82E8823D1F001151105B9F083E02A
:1028D000CC0FDD1F8A95E1F7FE01E95FFE4F4381D2
:1028E00050E00417150708F4A801C95FDE4F6C819A
:1028F0007D8163567D4FC7010E94A5318D2DCDB7D7
:10290000DEB7E7E00C94E9300E94F21508950E94CA
:102910001B160895A4E0B0E0E0E9F4E10C94D03097
:102920006091C0027091C1028091C2029091C30275
:102930000E94582711E0643671058105910518F150
:102940000E94C8116E5F7F4F8F4F9F4F69837A83BC
:102950008B839C8310E000E030E020E044E050E016
:10296000BE016F5F7F4F82E00E943C14182F8823C6
:1029700051F00E943D276093C0027093C102809382
:10298000C2029093C302812F2496E4E00C94EC30B1
:10299000B0E0A0E0EEECF4E10C94CA30C82F7B016B
:1029A000D42F69015801FB0160817181828193817B
:1029B0000E945827643671058105910510F4DD23C6
:1029C000C9F010E000E030E020E0A501B6018C2F56
:1029D0000E943C14C82F882339F00E943D27F7013C
:1029E00060837183828393838C2FCDB7DEB7EAE057
:1029F0000C94E630C1E0F8CFABE0B0E0E2E0F5E106
:102A00000C94D030CE0101960E94101F41E08B85BE
:102A1000811101C040E00BE010E09E012F5F3F4FAD
:102A200068EC72E084E00E94C814182F81110E94A3
:102A30000D1F812F2B96E4E00C94EC30A1E0B0E068
:102A4000E4E2F5E10C94D0300E94C4218823D1F057
:102A50000E94DC218983E091D001F091D10141E015
:102A60009285981301C040E001E010E09E012F5FC5
:102A70003F4F64EC72E083E00E94C8142196E4E0CA
:102A80000C94EC3080E0E6CFB0E0A0E0EAE4F5E1C1
:102A90000C94CA307C015B016A010E94F91301E0C9
:102AA00010E0882311F00AE010E0C1E0D0E0B501A9
:102AB000C701F6010995811104C021960C171D0765
:102AC0002CF4CDB7DEB7EAE00C94E630CC9F900151
:102AD000CD9F300D300D112490E080E045E34A9504
:102AE000F1F70000019682179307C1F7E0CFA6E047
:102AF000B0E0EDE7F5E10C94CA307B01C090D00165
:102B0000D090D10101E010E09E012A5F3F4F50E0DC
:102B100040E070E060E080E00E943C14182F8823C1
:102B200009F448C056018FEFA81AB80A6091BC0298
:102B30007091BD028091BE029091BF020E94582701
:102B4000643671058105910568F105E010E09E018C
:102B50002F5F3F4F50E040E070E060E081E00E9476
:102B60003C14D82E65E070E0C5010E94C62311E038
:102B70009E81981310E01D2141F10E943D27609332
:102B8000BC027093BD028093BE029093BF0285E0A9
:102B9000FE013196A7EBB2E001900D928A95E1F724
:102BA00011E013C065E070E0C5010E94C6239E815C
:102BB0008913CBCF85E0F6013196DE0111960190A5
:102BC0000D928A95E1F71111E2CF85E0E7EBF2E093
:102BD000D70101900D928A95E1F7812F2696EAE0C0
:102BE0000C94E6300F931F93CF93DF93EC018B018E
:102BF00047E755E10E944415811106C080E0DF914E
:102C0000CF911F910F9108954AE854E1B801CE0188
:102C10000E944415882391F34EE155E1B801CE019D
:102C20000E944415882351F34CEF54E1B801CE01C2
:102C30000E944415E4CFABE0B0E0E1E2F6E10C9491
:102C4000CC300091D0011091D101C801019625E04E
:102C5000FB01DC0101900D922A95E1F765E070E03F
:102C60000E94C623F80180836681778180859185E3
:102C7000C090B302D090B402E090B502F090B602DA
:102C80006C157D058E059F0551F06093B30270931E
:102C9000B4028093B5029093B6020E94AB11F80182
:102CA00082850E9495228BE0F8013B96DE01119609
:102CB00001900D928A95E1F7F801158A8B8588239A
:102CC00029F060E0CE0101960E9435202B96E8E0C5
:102CD0000C94E8300E94DB2A0E94FD0E0E94E82A34
:102CE00008950E94ED2A0E94120F0E94072B08955A
:102CF0000E94CA260E94C12A0E94E30E0E946A1600
:102D00000E9471160E94F10EFBCF9093FF018093F9
:102D1000FE010895282F35EB2303C001112497FFEE
:102D200004C080589109892F089580589F4FFBCF88
:102D30008091D20280FF0DC06091340170E0660F77
:102D4000771F6038710570F56115710569F1862F7F
:102D5000089581FF07C06091340184E0689FB0014D
:102D60001124EFCF6091340182FD0AC08091D1021D
:102D70008823A9F02091330160913401821710F06B
:102D800088E0ECCF869FC001112433E0880F991FA3
:102D90003A95E1F7622F70E00E945530D2CF68E09B
:102DA00070E0D5CF8FE7089581E008958091D20239
:102DB00080FF0CC06091300170E075956795759546
:102DC00067956115710549F1862F089581FF06C049
:102DD0006091300170E075956795F3CF6091300197
:102DE00082FD0BC09091D0029923A1F060912F0138
:102DF00080913001961738F0682F70E060387105C7
:102E000000F38FE70895899FC001112470E00E94AC
:102E10005530F4CF61E070E0D7CF81E008958D3C6C
:102E200031F40E94981681958093D60208958E3CC5
:102E300019F40E949816F8CF8F3C31F40E9498162E
:102E400081958093D5020895803D19F40E949816CB
:102E5000F8CF893D29F40E94D6168093D7020895B1
:102E60008A3D21F40E94D6168195F7CF8B3D31F42F
:102E70000E94D61681958093D80208958C3D19F44E
:102E80000E94D616F8CF9FE2980F983070F4815DBB
:102E9000990B21E030E001C0220F8A95EAF780917A
:102EA000D402822B8093D40208958D3D31F4809119
:102EB000D20281608093D20208958E3D21F48091E8
:102EC000D2028260F7CF8F3DB9F78091D202846041
:102ED000F1CF4091D5028D3C59F48091D60287FF05
:102EE0000DC01092D60241110BC01092D10208C041
:102EF0008E3C81F48091D60218169CF3442381F015
:102F00008091D7029091D802892B09F05AC0109273
:102F1000D00208958F3C49F447FFF0CF1092D502BC
:102F20008091D6028111ECCFE0CF803D19F41416C8
:102F3000ACF3E4CF9091D702893D29F41916F4F649
:102F40001092D702DBCF8A3D19F497FFD7CFF8CF85
:102F50009091D8028B3D29F497FFD0CF1092D802E0
:102F6000CDCF8C3D19F41916CCF3C8CF9FE2980F42
:102F7000983090F4815D990B21E030E0B90102C0F6
:102F8000660F771F8A95E2F7CB0180959091D40266
:102F900089238093D402B2CF8D3D31F48091D20247
:102FA0008E7F8093D202AACF8E3D21F48091D202EF
:102FB0008D7FF7CF8F3D09F0A1CF8091D2028B7F1B
:102FC000F0CF08950E9431279C019091D502809105
:102FD000D602982B21F03093CF022093CE0290910D
:102FE000D7028091D802982B21F03093CD02209304
:102FF000CC0283ED92E00E94B225089586E0E3EDD5
:10300000F2E0DF011D928A95E9F71092D102109249
:10301000D0021092D2020895FC01828181110EC06B
:10302000838181110BC08481811108C091E0858169
:10303000811101C090E0892F8170089581E0FCCF5B
:10304000A6E0B0E0E6E2F8E10C94D13086E0E3EDF2
:10305000F2E0DE01119601900D928A95E1F710924F
:10306000D5021092D6021092D7021092D8028B810C
:103070009C81892B89F08091CE029091CF020E9491
:103080004927AC019091D1029923C9F18091350172
:103090008417150608F440C08D819E81892B91F01C
:1030A0008091CC029091CD020E944927AC01909171
:1030B000D002992309F46AC0809131018417150662
:1030C00008F472C0BE016F5F7F4F83ED92E00E94F3
:1030D0005F26811105C083ED92E00E940C188111DA
:1030E0000E94E21786E0FE013196A3EDB2E0019066
:1030F0000D928A95E1F72696E3E00C94ED3020914D
:1031000036018AE0289F900111242417350720F604
:103110009F5F9093D10202C09F3FD1F71B81112383
:1031200059F00E9498169FEF11160CF491E0899FB8
:10313000802D11248093D5021C81112359F00E9407
:1031400098169FEF11160CF491E0899F802D1124A1
:103150008093D6028091D502882309F49DCF1091E7
:10316000D602112309F498CF0E948A16882351F0C1
:103170008093D502812F0E948A16882329F080939C
:10318000D6028ACF81E0F4CF81E0F9CF20913201DD
:103190008AE0289F900111242417350708F092CF68
:1031A0009F5F9093D00202C09F3FD1F71D811123F2
:1031B00059F00E94D6169FEF11160CF491E0899FEA
:1031C000802D11248093D7021E81112359F00E9473
:1031D000D6169FEF11160CF491E0899F802D1124D3
:1031E0008093D8028091D702882309F46BCF109185
:1031F000D802112309F466CF0E948A16882351F061
:103200008093D702812F0E948A16882329F0809309
:10321000D80258CF81E0F4CF81E0F9CFEF92FF924E
:103220000F931F93CF93DF93EB01E82FD1110EC0C3
:10323000442321F0F0E0E25EFB4FE4916E2F7E2FFD
:103240008E2FCDB7DEB7E6E00C94EA300D2F10E0FC
:10325000282F30E0442329F0225E3B4FF9012491CE
:1032600030E0F6E0CF9FC0011124EFEFF0E0BF01A6
:103270000E944130AB018C2F90E0880F991FA5E58B
:10328000A49FB001A59F700D1124861B970B982F4A
:10329000990F980FBF01601B710B629FD001639F54
:1032A000B00D729FB00D11248B2F9D9FB001112482
:1032B000672F7727EF01C61BD70BBE01629FE00186
:1032C000639FD00D729FD00D11247F01E91AF10880
:1032D000E09EB001E19E700DF09E700D1124672FED
:1032E0007727E61BF70BE29F8001E39F100DF29F0B
:1032F000100D1124E12F722F4230510599F048F43E
:103300004115510569F04130510581F0EB2F8D2FAA
:1033100007C04430510569F080F046305105B1F7DF
:103320006E2F8FCFE22F7B2F812FFACFE22F7D2FB1
:10333000F7CFEB2F822F712FF3CF7B2F822FED2F23
:10334000EFCF41E00E940E1908950895EAE3F1E0FD
:103350008083618308950E94A1190895CF93DF931C
:10336000762FE901682F842F0E94AB197983688337
:103370008A83DF91CF91089580915803982F9E7F83
:1033800029F4817082608093580308958635E8F3AC
:1033900081708465F8CFB0E0A0E0E1EDF9E10C9434
:1033A000CC3088E090E00E94B6316B017C0184E271
:1033B00090E00E94AE31282F30E040E050E060E025
:1033C00070E080E090E000E20E94F930B22FA32F7D
:1033D000F42FE52FD62FC72F97018601BC29A12BEB
:1033E000FE295E2F532B2B2F3A2F4F2F6D2F7C2F23
:1033F000CDB7DEB7E8E00C94E830B0E0A0E0E3E061
:10340000FAE10C94C83049015A016B017C010E9419
:10341000BC198401A4016A2D7B2D88E090E00E94F4
:10342000E43194014A2D5B2DB601C70100E20E94F0
:103430001431622F84E290E00E94D231CDB7DEB722
:10344000ECE00C94E430E8E5F3E083E08083118263
:103450008FEF828383831482A2E2B3E012968C9171
:103460001297836012968C93758123E030E04FEFC2
:103470005FEF60E0868197810E94FD190895809139
:10348000580380FF02C08695089580E008959091CA
:103490005C03933018F49F5F90935C03882391F052
:1034A000209158033091590340915A0350915B0386
:1034B00060915C0370915D0380915E0390915F0366
:1034C0000E94FD19089581E00E94471A0895909185
:1034D0005C03992319F0915090935C03882391F039
:1034E000209158033091590340915A0350915B0346
:1034F00060915C0370915D0380915E0390915F0326
:103500000E94FD19089581E00E94671A089570E0F5
:103510000E949923089560913B018091580380FF98
:103520000BC080913A0123E0829FC0011124805A90
:103530009C4F0E94871A089580913C0190913D0113
:1035400023E0829FF0011124E05AFC4F891748F7CD
:103550001182108212828F5F3396F8CF90915803B8
:1035600090FF0EC090913C0120913D0133E0939F6C
:10357000F0011124E05AFC4F921718F00E948B1AA8
:1035800008958183608342839F5F3396F5CFA3E0E4
:10359000B0E0EDECFAE10C94D2309091580390FF3A
:1035A0000AC09E012F5F3F4F0E94AE194B81698177
:1035B0008A810E94AE1A2396E2E00C94EE30CF93FB
:1035C000DF93EC01EC81F0E0E75EFC4F4491E8E52D
:1035D000F3E0628181810E94C71A8C818F5F8C83A6
:1035E000DF91CF910895CF93DF93EC01E8E5F3E00D
:1035F000438162818C810E94C71A8C818F5F8C838A
:10360000DF91CF910895A3E0B0E0E9E0FBE10C94F5
:10361000D0308C018091D90281110AC09E012F5FA8
:103620003F4F4FEF6FEF0E94AE198A818093D9020E
:10363000F8016481613069F08091D90240E066232D
:1036400061F040E0623011F44091D90280E060E026
:1036500004C06091D90240E080E00E94AE1AF801F7
:10366000848190E0019663E070E00E94553084838D
:103670002396E4E00C94EC30A3E0B0E0E2E4FBE15C
:103680000C94CB30082FE62EF42EC22E90915803C6
:1036900090FF40C020915903281308C080915A031D
:1036A000861304C080915B03841729F08091240362
:1036B000826080932403E92FE695AE2FB0E0AE52EE
:1036C000BE4F8C91809322039E7F923039F59E01EC
:1036D0002F5F3F4F4F2D6E2D802F0E94AE194B81D3
:1036E00069818A810E94AE1A00935903E0925A03BD
:1036F000F0925B03CC2071F02091580360915C0341
:1037000070915D03302FA70180915E0390915F035C
:103710000E94FD192396E9E00C94E730823019F4F9
:10372000F0905B03E1CF8630A1F1893091F18931CE
:10373000D9F6E9516E2F6170B62EE695F0E0E75E9E
:10374000FB4F1491D12C60913E01D61618F00E94C7
:103750008B1ACACFD19EC001112470E00E94413063
:10376000802FB11014C0860F20913C01622F6D0D87
:103770007727771F9B01220F331F260F371F205AF1
:103780003C4F4F2D6E2D0E94AE19D394DCCF861B7B
:10379000EBCF022FA9CFE8E5F3E09181282F4381F9
:1037A000628188E0890F0E943C1B089581E00E949D
:1037B000CB1B0895E8E5F3E09181282F43816281D6
:1037C00088EF890F0E943C1B089581E00E94DA1B5C
:1037D0000895E8E5F3E0628121E1620F08F46FEFFC
:1037E000282F438181810E943C1B089581E00E9423
:1037F000E91B0895E8E5F3E0628121E1621B08F42A
:1038000060E0282F438181810E943C1B089581E064
:103810000E94FA1B0895E8E5F3E0438121E1420F9D
:1038200008F44FEF282F628181810E943C1B08958C
:1038300081E00E940B1C0895E8E5F3E0438121E15B
:10384000421B08F440E0282F628181810E943C1BCA
:10385000089581E00E941C1C089521E00E943C1BF9
:10386000089520E00E943C1B0895EF92FF921F9361
:10387000CF93DF93EC0110E0EE24EA94F12C6091F9
:103880003E01161770F00E948B1A9A818C8190FF6E
:1038900027C08F5F8C83DF91CF911F91FF90EF90B6
:1038A000089520913C01422F410F5527551FCA0111
:1038B0009A01220F331F280F391F205A3C4F70E006
:1038C000C7010E945530962F8C8140915B03609117
:1038D0005A03199F800D11240E94AE191F5FCFCF8C
:1038E0008150D8CFB0E0A0E0E8E7FCE10C94C8300C
:1038F000EC018A81BB24BA9480FD02C0BB24B3943E
:103900008C8181110AC081E0B81222C080913E01F1
:1039100081508093DB0281E08C83A12C4CE0942EBB
:1039200080913E01A816B8F00E948B1A8091DB02AC
:1039300091E0B91259C0811152C080913E0181506D
:103940008093DB021C82CDB7DEB7ECE00C94E43050
:103950001092DB02E0CF00913C01CA2CD12C0C0D5F
:103960001D2D111DC801880F991F080F191F005A1E
:103970001C4FF80111821082128234E0E32EF12CE8
:10398000812C8091DB02880D8D301CF1692D0E9405
:103990003330892F082E000C990BC816D90691F4E4
:1039A00080915B038E9DA0018F9D500D1124559534
:1039B000479555954795980160915A038091590311
:1039C0000E94AE198B0CF1E0EF1AF108D1F6A39426
:1039D000A7CF87FFDFCF90913E01890FDBCF8150CA
:1039E0008093DB02BC82AFCF90E0019660913E01F4
:1039F00070E00E9455308093DB028C83A4CFEF925D
:103A0000FF920F931F93CF93DF93EC018C81811171
:103A100009C081E08C831092DA0292E09093390120
:103A20008093380180913C0190913D0123E0829F79
:103A3000F0011124E05AFC4F891758F110E003E01F
:103A400060913E01161758F10E948B1A809138013F
:103A50002091DA02280F2093DA0290913901980F11
:103A600090933901191654F4022E000C330B409137
:103A70003E014150550B2417350734F08195809352
:103A80003801813009F41C82CDB7DEB7E6E00C9432
:103A9000EA301182108212828F5F3396CDCFE12EF1
:103AA000F12C70E0C7010E94553020913C01820F3B
:103AB000482F50E02091DA02022E000C330BE21660
:103AC000F306BCF020913901022E000C330B2E15A9
:103AD0003F057CF0809F90011124205A3C4F40917B
:103AE0005B0360915A03809159030E94AE191F5FD6
:103AF000A7CFFA01EE0FFF1FE40FF51FE05AFC4FAE
:103B0000118210821282F3CFB0E0A0E0EAE8FDE17A
:103B10000C94C830EC014C81042F10E09801D801BE
:103B20000E9499309B01AC010E94AF304B015C01B7
:103B3000E0E2F0E0E01BF10BA5E5B0E0AC019B0199
:103B40000E94AF306B017C019F01DF010E94913028
:103B50009B01AC010E94BA309B01AC01280D391DBC
:103B60004A1D5B1DC701B6010E946930F22E822FEB
:103B700090E039E23F1520F143E0249F90011124A9
:103B800035952795122F109500E085E5E82EEF1862
:103B900080913E01081718F10E948B1A9C8181E0E8
:103BA000992319F0903219F48FEF809337018091A7
:103BB0003701890F8C83CDB7DEB7ECE00C94E4308D
:103BC00025E530E0B901681B790B9B01220F331FFB
:103BD000260F371F37FFD4CF2F5F3F4FD1CF8E2D0A
:103BE00001FD8F2D20913C01622F600F7727771FF9
:103BF0009B01220F331F260F371F205A3C4F412FA6
:103C000060915A030E94AE190F5FC2CF0F931F93AA
:103C1000CF93DF93EC0110E000E090913E0190170C
:103C2000110609F06CF40E948B1A8C8190E00196C9
:103C3000817099278C83DF91CF911F910F91089507
:103C400020913C01A801420F511D9A01220F331F00
:103C5000240F351F205A3C4F4C8160915A038091AC
:103C6000590396959017110651F04CF0442349F0F2
:103C700040915B030E94AE190F5F1F4FCECF4423CC
:103C8000B9F340E0F7CFB0E0A0E0E9E4FEE10C9446
:103C9000C430FC016280448081E08483E9E1F3E088
:103CA0007490E8E9F3E0E491C0915B03C695C158D4
:103CB000D0E0CC0FDD1FCD2FDD27812C75E0972EB6
:103CC000AA24AA94B12C55245A94E719EE2EF12C6B
:103CD00080913E01881638F00E948B1ACDB7DEB76E
:103CE000E0E10C94E030C82CD12C82E0861568F01D
:103CF0009C9CF0019D9CF00D1124E152FD4F8091A0
:103D00005903808380915A038183411023C09C9C76
:103D1000F0019D9CF00D1124E152FD4F138212829F
:103D200020913C01C601820F911D9C01220F331F7F
:103D3000280F391F205A3C4F9C9CF0019D9CF00D90
:103D40001124E152FD4F4281618180810E94AE19B0
:103D50008394BECF9C9C80019D9C100D1124015228
:103D60001D4FF80183818823F1F081508383859D65
:103D7000C0011124648170E00E944130FB01FF27E3
:103D8000E75EFC4F8491E82FE719E59DC0011124FF
:103D9000B7010E94413080915B03689FB0011124FC
:103DA000F8017283BDCF0E947B31B5010E9455306E
:103DB0008C179D070CF0B4CFF2E0F61598F40E9432
:103DC0007B31B5010E945530F80180830E947B3120
:103DD00020915A032695622F70E00E945530280FDB
:103DE000F80121839C9CF0019D9CF00D1124E1526F
:103DF000FD4F128280915B03893C58F088EC9C9CBB
:103E0000F0019D9CF00D1124E152FD4F84838383CA
:103E100087CF8431A0F784E1F2CF10922403089574
:103E200028E0E8E5F3E0DC0101900D922A95E1F746
:103E3000209122033091230340912403FC01208729
:103E4000318742870895E2E2F3E011828281846043
:103E500082830895E8E5F3E080818E7F80830E946D
:103E6000231FE2E2F3E08281816082830E948B1A49
:103E70000895E8E5F3E020812E7F2083318142819F
:103E8000538164817581868197810E94FD190E940A
:103E9000231FE2E2F3E08281816082830E948B1A19
:103EA000089560915803669570E04BE050E08FE311
:103EB00091E00E948B31892B19F481E080932303D8
:103EC0000E94E21190931C0380931B0380912403B2
:103ED00084608093240308959091580390FF38C024
:103EE0009170811136C092609093580380912403A1
:103EF000816080932403662391F0209158033091D0
:103F0000590340915A0350915B0360915C03709197
:103F10005D0380915E0390915F030E94FD196091A3
:103F20005803669570E04BE050E08FE391E00E940B
:103F30008B31892BA9F00E94231F81E080931E03FF
:103F400040915B0360915A03809159030E94311C98
:103F500008958B3210F09465C7CF880F982BC4CF8B
:103F60000E94511FEACF682F90915803969581E0E7
:103F7000890F8B3208F081E00E946C1F089581E068
:103F80000E94B31F0895682F9091580396958FEF64
:103F9000890F09F48AE20E946C1F089581E00E9453
:103FA000C31F089561E00E946C1F0895E8E5F3E0E7
:103FB00080818160808386950E94D21F08958091C0
:103FC000580380FF03C00E94391F08950E94D61F26
:103FD000089560E00E946C1F089580912103811173
:103FE00043C00E94020E811104C00E94980E0E94DC
:103FF000231A0E94CB1920935803309359034093FE
:104000005A0350935B0360935C0370935D0380934A
:104010005E0390935F038091240383608093240365
:104020002E7FA1F40E94231A0E94CB1920935803DB
:104030003093590340935A0350935B0360935C039E
:1040400070935D0380935E0390935F030E94BC199D
:104050000E94231F8091580380FF03C086950E9411
:10406000E91F81E08093210308951F93CF93DF938D
:10407000EC01162F8A8580FF0CC0888180FF24C048
:1040800080915803816080935803888186950E94AF
:104090006C1F8A8581FF06C0212F4B816A8189812F
:1040A0000E943C1B8A8582FF05C08985882379F0A0
:1040B0000E94511F8A8583FF03C081E080931E0305
:1040C000DF91CF911F9108950E942A1FE2CF0E9495
:1040D000231FF0CFEF92FF920F931F93CF93DF93A5
:1040E00080912303882309F463C080912203E09127
:1040F0005803E695E81BE0931D03823009F05DC08C
:10410000F0E0EB5EFC4FE491CE2FD0E00FED1AE132
:1041100080911E03882361F010921E030E94E21119
:1041200090931C0380931B031092200310921F0393
:104130000E94E211E0911B03F0911C039C012E1BD5
:104140003F0B2F3F3F47A0F52091DE022223B1F025
:104150001092DE022091DC023091DD02821B930B73
:104160008F3F9F4758F4205D3A483093DD022093FB
:10417000DC0280912403886080932403E0901F0375
:10418000F0902003EC0FFD1FF0931C03E0931B0342
:104190008BE193E0F801099580911F039091200332
:1041A000892B31F4E114F10419F081E08093DE02EF
:1041B000CDB7DEB7E6E00C94EA30863049F4F0E0A3
:1041C000EE5EFC4FE491CE2FD0E003EF1AE1A0CFDA
:1041D000893051F4E695F0E0E15FFC4FE491CE2F99
:1041E000D0E005E31CE194CF8F3051F4E695F0E088
:1041F000E45FFC4FE491CE2FD0E002E71CE188CFD2
:10420000853149F4F0E0E75FFC4FE491CE2FD0E038
:104210000FEF1CE17DCFC8E2D0E004E81DE188315A
:1042200009F476CF833239F4E7E0F3E0C591D49115
:1042300003E01BE16DCFC4EFD1E006E01EE1843264
:1042400009F466CFC0EDD7E005EA19E1853209F03F
:104250005FCF8E2F63E00E942730E92FF0E0EC5F04
:10426000FC4FE491CE2FD0E003E41EE151CFFA01E0
:10427000811101C0FB0109950895CF93DF93C82FE9
:10428000D62F0E943F1A8C1748F00E943F1A8D17B4
:1042900028F40E94BF1FDF91CF9108958C2F0E94B8
:1042A000D21FF9CF1F93CF93DF93EC01FB01158150
:1042B000111110C00E94010D8272FE01E052F847F8
:1042C000E531F10508F05EC0ED5CFD4C0C948B30DF
:1042D0000E94DF1F812FDF91CF911F9108954EEC37
:1042E0005FE16FEB7FE10E943721F4CF4FEB5FE19D
:1042F0006EEC7FE1F8CF45EE5BE166ED7BE1F3CF5D
:1043000046ED5BE165EE7BE1EECF47E05CE166EF19
:104310007BE1E9CF46EF5BE167E07CE1E4CF49E296
:104320005CE168E17CE1DFCF48E15CE169E27CE1EE
:10433000DACF43E85AE163E67AE1D5CF43E65AE1C2
:1043400063E87AE1D0CF81E00E94D21FC3CF65E05D
:1043500082E00E943D21BECF68E086E0FACF6EE0A9
:1043600089E0F7CF64E18FE0F4CF67E185E1F1CF39
:1043700088E1EACF62E289E1ECCF83E2E5CF6AE24D
:1043800085E2E7CF11E0A6CF809184038170089584
:1043900086E090E00E94AE310895682F86E090E0BC
:1043A0000E94D2310895E4E8F3E08081847089634B
:1043B00080830E94CD2108958091840386958695FF
:1043C000869508950E94020E811104C00E94980EE5
:1043D0000E94D3210E94C82180938403803420F05E
:1043E000877088638093840390918403892F817000
:1043F00090FF04C0892F8695869586950E94E622B7
:10440000089580918403982F969596959695973068
:1044100040F49F5F990F990F990F8770892B8093B4
:104420008403809184038160809384030E94CD2162
:10443000809184038695869586950E94E62208954C
:1044400080918403982F987F79F08850809384031B
:10445000887F91E009F490E08091840390FB80F9DB
:10446000809384030E94CD21809184038695869554
:1044700086950E94E62208958091840380FD13C0F2
:10448000816080938403813019F489E080938403F0
:10449000809184030E94CD21809184038695869526
:1044A00086950E94E62208958091840380FF08C0CB
:1044B0008E7F809384030E94CD2180E00E94E622BB
:1044C00008958091840380FF03C00E9454220895C0
:1044D0000E943C22089590918403892F86958695A9
:1044E00086958F5F8F7197708830E0F4880F880F02
:1044F000880F892B8093840380918403887F91E0C7
:1045000009F490E08091840390FB80F98093840308
:104510000E94CD21809184038695869586950E9480
:10452000E622089590938403E7CF883008F087E06F
:10453000909184039770282F220F220F220F922B25
:1045400090938403987F21E009F420E09091840304
:1045500020FB90F9909384030E94E62208950E9424
:104560009522809184030E94CD2108959C01FB0136
:104570008581882349F12230F8E73F07F9F040F4BC
:104580002115E8E73E0769F02130384779F00895B2
:10459000243098E7390779F058F02530384789F00A
:1045A000089587E00E94AF2280E0089580E0FACF6E
:1045B0000E942022F9CF0E940122F6CF0E946122A0
:1045C000F3CF0E946B22F0CF81E008958F929F92EB
:1045D000AF92BF92EF92FF920F931F93CF93DF930F
:1045E0008830B0F5811135C0909180009F7790930D
:1045F0008000A0918600B0918700282F30E00E94B3
:10460000993027E030E040E050E00E9469308901B5
:104610009A0180918600909187006CE070E00E9482
:10462000413060177107C8F0C80169E070E00E946E
:1046300041307093890060938800DF91CF911F9182
:104640000F91FF90EF90BF90AF909F908F90089543
:1046500087E0909180009068CACF80918600909109
:104660008700E0908600F0908700E0918600F0914E
:104670008700C6E0D0E0BE010E944130060F171F40
:10468000211D311D4801590185E0880C991CAA1C87
:10469000BB1C8A95D1F7C701BE010E9441309F0122
:1046A00050E040E0260F371F411D511DC501B401E8
:1046B0000E94693049015A01E0918600F09187001B
:1046C000CA01B9010E9417309B01AC01DF010E94B1
:1046D000AF309B01AC01C501B4010E9417302FE03F
:1046E00096958795779567952A95D1F700918600DD
:1046F0001091870030E020E00617170728073907D8
:1047000008F097CF609186007091870092CF08954E
:10471000259A2D9882E88093800089E1809381001A
:104720008FEF9FEF90938700809386000E94E22195
:104730000895249A45B14F7E55B15061EFB7F89472
:104740009B01220F331F260F371F280F391F2817F1
:10475000390741F4EFBF8FE594E00197F1F700C00E
:1047600000000895DC016D91CD0178E055B900009D
:1047700000C067FF45B9660F000000C000C000C060
:1047800045B900C07A9591F7E2CF0895FC01680F12
:10479000791F8FEF91E3E617F70709F40895219148
:1047A000822728E030E087FF06C0880F8927215044
:1047B0003109C9F7F0CF880FFACFCF93DF93EC011F
:1047C000FB018581882309F4D2C09E013057233232
:1047D000310508F0B2C00E94170E909341038093F8
:1047E0004003FE01E150F047E232F10520F4E85BBE
:1047F000FD4C0C948B30809140038160809340038A
:1048000093C0809141038860809341038DC0809163
:1048100040038260F3CF809140038460EFCF8091AA
:1048200040038860EBCF809141038160EDCF8091A0
:1048300041038260E9CF809140038061DFCF8091A6
:1048400040038062DBCF809140038064D7CF0E9419
:104850006E08809140038068D1CF809140038C60C6
:10486000CDCF809141038360CFCF809140038E7F75
:10487000C5CF80914103877FC7CF809140038D7F53
:10488000BDCF809140038B7FB9CF80914003877F5C
:10489000B5CF809141038E7FB7CF809141038D7F4B
:1048A000B3CF809140038F7EA9CF809140038F7D4D
:1048B000A5CF809140038F7BA1CF0E946E0880918D
:1048C00040038F779BCF80914003837F97CF809168
:1048D00041038C7F99CF8091400382FB992790F907
:1048E00021E0922790FB82F990FB83F987CF80919A
:1048F0004103982F909591708E7F892B90FB81F9C1
:1049000083CF90914003892F8F7B96FF806476CF71
:104910000E946E0890914003892F97FB87F9805879
:104920006DCF81E00E949B0E8091400390914103E6
:104930000E941C0E0E946E0880E0DF91CF910895C6
:1049400080E0F0CF90914003892F8F7E94FF8061AB
:1049500055CF90914003892F8E7F90FF81604ECF7D
:1049600090914103892F877F93FF88604DCF81E02D
:10497000E4CFCF93DF93EB0186319C4711F50E9482
:10498000010D9D81992399F08A7A91E009F490E0D4
:1049900090932503811109C089E20E94D90C0E94DD
:1049A0005A0D80E0DF91CF91089585E3F6CF809195
:1049B0002503811104C089E20E94E10CF0CF85E358
:1049C000FBCF81E0EFCF0F931F93CF93DF93C42FE3
:1049D000D22FFC0185818823C9F0409328030E94CF
:1049E0003127909327038093260380E28C0F883031
:1049F00040F4C77081E001C0880FCA95EAF70E94B1
:104A00001A06DF91CF911F910F91089510912803FD
:104A1000141332C080912603909127030E944927E6
:104A2000883C910548F5C0E2CD0F1D17B9F080E232
:104A3000810F883040F4177081E001C0880F1A950B
:104A4000EAF70E942106C83048F481E09D2F977054
:104A500001C0880F9A95EAF70E941A06802F0E94DB
:104A60001106C83070F6D77081E001C0880FDA9562
:104A7000EAF70E942106C5CF80E28C0F883008F645
:104A8000C77081E001C0880FCA95EAF7F2CF0F9393
:104A9000DB0188519C4787309105A0F5FC01E65960
:104AA000FD4C0C948B3006E221EE41EE6AE17CE78E
:104AB000CD010E94E32480E00F91089507E225EEE6
:104AC00045EE6BE17CE7F4CF06E221EE40EE68E1D3
:104AD0007CE7EECF07E225EE44EE69E17CE7E8CF24
:104AE00006E221EE42EE6CE17CE7E2CF07E225EE42
:104AF00046EE6DE17CE7DCCF08E221E045EE6EE1B9
:104B00007CE7D6CF15968C91882319F01092280354
:104B1000D3CF81E0D1CF90932F0380932E030895BC
:104B20000E94BE13811103C0809129030895E09172
:104B30002E03F0912F03309729F00190F081E02DA2
:104B40000995089580E008950E9490250895E091C8
:104B50002E03F0912F03309721F00280F381E02D96
:104B600009950895E0912E03F0912F03309739F0C5
:104B700022E0DC012C930480F581E02D0995089555
:104B8000A3E0B0E0E6ECF5E20C94D23020912C03E7
:104B900030912D0328173907A1F090932D038093AE
:104BA0002C03E0912E03F0912F03309751F023E076
:104BB00029839B838A830680F781E02DCE010196AD
:104BC00009952396E2E00C94EE30A3E0B0E0EBEE22
:104BD000F5E20C94D23020912A0330912B03281750
:104BE0003907A1F090932B0380932A03E0912E03C1
:104BF000F0912F03309751F024E029839B838A831F
:104C00000680F781E02DCE01019609952396E2E01A
:104C10000C94EE309C012E5F3F4FAC01485F5F4F1C
:104C200080E02417350709F40895F90191919F0157
:104C30009923B9F38F5FF5CF662349F0FC013296D3
:104C400008962191261729F0E817F907D1F780E097
:104C5000089581E008959C01FC0132969FEF80E069
:104C60004191461751F09F3F19F4411101C0982F0F
:104C70008F5F8630A9F79F3F09F40895290F311DF2
:104C800097FD3A95F90162830895FC0132960896E2
:104C90002191261303C0DF0111971C92E817F90731
:104CA000B9F708950E942B2608950E94452608957D
:104CB000029626E0FC0111922A95E9F70895DC019D
:104CC000FB0111969C9111978181981322C0129635
:104CD0008C911297882319F0928189131AC0139628
:104CE0008C911397882319F09381891312C015961C
:104CF0008C911597882319F0958189130AC0149611
:104D00009C91992321F081E02481291303C080E044
:104D100001C081E08170089508950E948C26089555
:104D2000811106C081E0809330030E948D26089592
:104D300082E0F9CF83E0809330030E948D260895AE
:104D40000E949026089581E0809330030E948D2672
:104D500008950E94A3260895089508950E94AD26FF
:104D60000895089508950E94AC260895CF930E9457
:104D7000B1260E943D130E94B226C0E08C2F0E94F3
:104D80001612811105C0CF5FCA30C1F7CF910895C7
:104D900081E0FCCF85B7806885BF85B7806885BF17
:104DA00008951F921FB61F9211248F939F93AF9364
:104DB000BF9380913103811113C08091850390913D
:104DC0008603A0918703B09188034196A11DB11D70
:104DD0008093850390938603A0938703B093880301
:104DE000BF91AF919F918F911F901FBE1F901895FB
:104DF00080918D03843031F10E947C041092310344
:104E000088E190E020E40FB6F894A89580936000C4
:104E10000FBE2093600083B7817F846083BF83B718
:104E2000816083BF7894889583B78E7F83BF0FB6E8
:104E3000F894A8958091600088618093600010923A
:104E400060000FBE08950E946E080E9484040895B9
:104E500082E084BD93E095BD9AEF97BD80936E008C
:104E600008952FB7F8948091850390918603A091BF
:104E70008703B09188032FBF08952FB7F8946091EE
:104E800085037091860380918703909188032FBFDB
:104E900008959C014FB7F894809185039091860303
:104EA000A0918703B09188034FBF821B930B089595
:104EB000CF92DF92EF92FF922FB7F894C0908503C4
:104EC000D0908603E0908703F09088032FBFA7015E
:104ED0009601261B370B480B590BCA01B901FF90ED
:104EE000EF90DF90CF90089578941F921FB61F9295
:104EF00011248F939F93AF93BF93809185039091DB
:104F00008603A0918703B09188030196A11DB11D6E
:104F10008093850390938603A0938703B0938803BF
:104F2000BF91AF919F918F911F901FBE1F901895B9
:104F300081E08093E00080E28093D8001092C90065
:104F40008FE19EE40197F1F700C0000087E090EB4D
:104F5000DC018093960390939703A0939803B093FA
:104F6000990388E19CE00FB6F894A89580936000BF
:104F70000FBE90936000FFCF88E19CE00FB6F894DD
:104F8000A895809360000FBE90936000FFCF8EE1E4
:104F9000489B02C08150E1F7489BFECF0895589886
:104FA00080E28A95F1F7589A0895FC013BE03A9522
:104FB000F1F798E020E080E031E040E14A95F1F738
:104FC000880F489B02C08160232742E04A95F1F791
:104FD000000040E14A95F1F7915079F790E19A95F8
:104FE000F1F799B132E03A95F1F7000040E14A95C6
:104FF000F1F7917092272081920F90830895A1E09C
:10500000B0E0E5E0F8E20C94CE3019828C017C012E
:10501000E60EF11C0E151F0541F481E099819111F6
:1050200080E02196E6E00C94EA300E94C727CE018A
:1050300001960E94D527F80181938F01EBCF509AFA
:10504000589A08955098589AE89AE9E6F0E08081D5
:105050008C7F808308956150770B91E001C0990F98
:105060006A95EAF720E031E0911108C0222391F01F
:10507000589A80E28A95F1F758980895492F482365
:1050800039F0589A232740E24A95F1F79695ECCFEC
:105090005898F9CF5898EDCFFF920F931F93CF9365
:1050A000DF93EC018C01060F111DC017D10729F405
:1050B000CDB7DEB7E5E00C94EB30F9900E94CF2736
:1050C00068E08F2D0E942B28F0CF1F920F920FB611
:1050D0000F9211240F931F932F933F934F935F933E
:1050E0006F937F938F939F93AF93BF93EF93FF93B0
:1050F000CF93DF930F92CDB7DEB719820E94C727F7
:10510000CE0101960E94D527082F06950695069593
:10511000282F22952570902F9570290F922F93702C
:1051200026952695920F982797708981982B09F0DC
:105130005CC0063008F059C080E18A95F1F7589AB2
:10514000509A82E08A95F1F700C0589888E0089F4D
:1051500080011124D801A95FBE4F1696ED91FC91F4
:1051600017973097A9F06091D0017091D1011496F2
:105170002D913C911597260F371F11968D919C917B
:105180001297680F791F13964C9113978C9109957C
:10519000F801E95FFE4F6381662351F02091D00151
:1051A0003091D10184819581820F931F0E944C28F8
:1051B0000E94CF2780E18A95F1F758985098589A25
:1051C00080E18A95F1F7F801E95FFE4F608166237F
:1051D00051F02091D0013091D10181819281820FD3
:1051E000931F0E94FF270E94C7270F90DF91CF9146
:1051F000FF91EF91BF91AF919F918F917F916F91AF
:105200005F914F913F912F911F910F910F900FBE82
:105210000F901F9018950F931F93CF93DF93EC017E
:1052200006970CF04CC0F894509A589885E08A95EF
:10523000F1F700009C2F969595708C2F8570980F34
:10524000892F83709695969523E0CC0FDD1F2A95C4
:10525000E1F7980F8E01092B0E94CF2700C068E06C
:10526000802F0E942B2880E18A95F1F75098589A58
:10527000489B1EC087E090E048991CC0FE01E95F92
:10528000FE4F63816623F9F02091D0013091D10166
:1052900084819581820F931F0E94FF27811113C083
:1052A000509A589A7894DF91CF911F910F91089559
:1052B00000C0DECF019729F4509A589A789480E084
:1052C000F2CF00C0D9CF0E94C72780E28A95F1F7BC
:1052D0005898509A80E18A95F1F7C95FDE4F68814E
:1052E000662351F02091D0013091D10189819A81BA
:1052F000820F931F0E944C280E94CF27789481E050
:10530000D2CF80913A0308959B01BA0190918D0309
:105310009430E9F48F708093E9009FEF8091E8006A
:10532000915085FD06C085ED8A95F1F70000911139
:10533000F5CF8091E80085FF0AC050E040E0C90148
:105340000E947E2B8091E8008E778093E80008957C
:1053500043E050E0BC0182E00E948429089546E0C9
:1053600050E0BC0182E00E9484290895CF93DF932E
:10537000EC0148E050E0BC0181E00E94842988E013
:10538000FE01A2E3B3E001900D928A95E1F7DF916F
:10539000CF91089580918C03811109C00E940E2D38
:1053A0000E946B2D8091E20084608093E20008955A
:1053B00010928C0308950E94A3260895609189039A
:1053C00081E0611101C080E00E949A2608959091C9
:1053D0008D0381E0943009F080E0609189030E94A0
:1053E000A026089542E061EC81E00E948A2C42E20E
:1053F00061EC82E00E948A2C90918D0381E09430D0
:1054000009F080E0609189030E94902608958091C0
:105410008F03833009F461C030F48130D1F18230E0
:1054200009F49EC008958A3009F48AC08B3009F4CB
:105430006FC0893009F050C080918E03813209F02D
:105440004BC08091920390919303029708F044C05F
:105450008091E800877F8093E8008091E80082FFD8
:1054600037C09091F3008091F200029731F480915F
:10547000F100813011F0863021F48091F1008093A9
:105480003A038091E8008B778093E8000E94BE2C5D
:1054900023C080918E03813AF9F48091E800877FE0
:1054A0008093E8008091920390919303892B61F49B
:1054B00068E082E393E070E00E94CD2B8091E800E9
:1054C0008B778093E800089560E090E080E0F3CF70
:1054D00080918D038111C1CF089580918E03813A0F
:1054E000D9F78091920390919303892BA9F780912A
:1054F000E800877F8093E8008091E80080FFFCCF80
:10550000809152018093F1008091E8008E77BCCFAA
:1055100080918E03813201F78091920390919303E1
:10552000892BD1F68091E800877F8093E8000E9464
:10553000BE2C80919003809352010E946E080895C2
:1055400080918E03813241F68091E800877F8093BD
:10555000E8000E94BE2C8091910380933B03089544
:1055600080918E03813A09F0B7CF8091E800877F60
:105570008093E8008091E80080FFFCCF80913B039E
:10558000C1CF84B7877F84BF0FB6F894A895809168
:105590006000886180936000109260000FBE80E818
:1055A00090E00FB6F89480936100909361000FBE75
:1055B0000E94A92608950E940E2D0E946B2DE2EEF6
:1055C000F0E080818460808378940E94EA2F0895BF
:1055D0008AE491E00E948B25089580918D038530A7
:1055E00031F480918D03853019F00E9423270895AE
:1055F0000E94F82680918B03882399F30E94B62697
:10560000882379F30E94682B0E946E08EACF0895E0
:105610009A0140919403509195030E94102B089594
:10562000492F55274330510519F168F44130510590
:1056300009F444C04230510509F445C090E080E0CF
:1056400050E040E025C04132510549F14232510558
:10565000A9F784E490E04AE156E061157105C1F0D4
:105660008BE790E04FE955E06130710589F0E6CFB6
:1056700099278130910581F0009729F00297F1F682
:10568000EEE1F5E002C0EEE4F5E0849190E0AF01D8
:10569000F901518340830895EEE3F5E0F6CF89E008
:1056A00090E044E655E06115710591F389E090E0E2
:1056B0004DE755E06130710559F3C0CF82E190E0CC
:1056C0004DE855E0E5CF8BE390E042E555E0E0CFD3
:1056D00080E189BD82E189BD09B400FEFDCF8091E2
:1056E000D8008F7D8093D8008091E0008260809305
:1056F000E0008091E00081FDFCCF0895AF92BF9261
:10570000CF92DF92FF920F931F93CF93DF936C01A1
:10571000EB018A010E94DD2CF82E811123C00115B6
:10572000110539F0F80180819181C81BD90BC80E91
:10573000D91EB12CA12C2097A9F08091E80085FDFD
:1057400022C08091E8008E778093E8000115110552
:10575000A1F0F80180819181A80EB91EB182A082CA
:1057600085E0F82E8F2DDF91CF911F910F91FF9043
:10577000DF90CF90BF90AF9008950E94DD2C8823DA
:10578000D1F2F82EEFCFF60181916F018093F100F5
:105790002197FFEFAF1ABF0ACECFFC01809194038F
:1057A0009091950386179707A0F06115710529F46C
:1057B0009091E8009E779093E80090E06115710564
:1057C00051F4911108C08091E80082FF34C080E05C
:1057D0000895BC01F2CF80918D038823C1F18530FB
:1057E000C1F18091E80083FD30C08091E80082FD26
:1057F000EACF8091E80080FFE1CF8091F300209113
:10580000F200382F6115710519F02830310558F074
:1058100091E02830310509F090E02091E8002E77E2
:105820002093E800CBCF81918093F1006150710902
:105830002F5F3F4FE7CF80918D03882341F0853064
:1058400041F08091E80083FFBECF81E0089582E0BF
:10585000089583E00895FC0180919403909195034D
:1058600086179707A0F06115710529F48091E8006B
:105870008E778093E80090E06115710551F49111E5
:1058800008C08091E80082FF35C080E00895BC0127
:10589000F2CF80918D038823C9F18530C9F18091C1
:1058A000E80083FD31C08091E80082FDEACF80915D
:1058B000E80080FFE1CF8091F3002091F200382FC3
:1058C0006115710519F02830310558F091E0283044
:1058D000310509F090E08091E8008E778093E80030
:1058E000CBCF84918093F1003196615071092F5F85
:1058F0003F4FE6CF80918D03882341F0853041F002
:105900008091E80083FFBDCF81E0089582E0089593
:1059100083E00895982F973028F08F708093E900E6
:1059200081E008959093E900242F762F50E0981796
:1059300031F07091EC002091ED005091F00021FDCC
:1059400002C09F5FE8CF3091EB003E7F3093EB00C9
:105950003091ED003D7F3093ED003091EB003160F0
:105960003093EB007093EC002093ED005093F00027
:105970002091EE0027FDE5CF80E0089580918E0311
:1059800087FF13C08091E80082FF06C08091E80085
:105990008B778093E80004C080918D038111F2CF52
:1059A000089580918D038823D9F38091E80080FFCA
:1059B000F8CF8091E8008E77ECCF2091E400309111
:1059C000E50095E6A9012091EC00822F817020FF6F
:1059D00006C08091E80080FF06C080E00895209115
:1059E000E80022FD1AC080918D03882389F085305C
:1059F00089F08091EB0085FD0FC02091E40030918B
:105A0000E50042175307F9F29150E1F684E008955A
:105A100082E0089583E0089581E008950E947D2D3D
:105A20000E94852DE0EEF0E0808181608083E8EDCA
:105A3000F0E080818F77808319BCA7EDB0E08C9176
:105A40008E7F8C9380818F7E808310928C0308954B
:105A50000F931F93CF93DF930E947D2D0E94852D7E
:105A6000C8EDD0E088818F778883888180688883BB
:105A700088818F7D888319BC10928D0310928903D1
:105A800010928B0310928A0300EE10E0F8018081DF
:105A90008B7F808388818160888342E060E080E042
:105AA0000E948A2CE1EEF0E080818E7F8083E2EE1E
:105AB000F0E0808181608083808188608083F8014C
:105AC00080818E7F8083888180618883DF91CF9100
:105AD0001F910F910895E8EDF0E080818F7E808323
